:100000000C941C030C9444030C9444030C9444037C
:100010000C9444030C9444030C9444030C94440344
:100020000C9444030C9444030C9444030C94440334
:100030000C9444030C9444030C9444030C94440324
:100040000C94B3130C9444030C9444030C94440395
:100050000C9444030C9444030C9444030C94440304
:100060000C94FD130C94440300000000003E5B4F11
:100070005B3E3E6B4F6B3E1C3E7C3E1C183C7E3C08
:10008000181C577D571C1C5E7F5E1C00183C180016
:10009000FFE7C3E7FF0018241800FFE7DBE7FF30A6
:1000A000483A060E2629792926407F050507407F14
:1000B00005253F5A3CE73C5A7F3E1C1C08081C1C87
:1000C0003E7F14227F22145F5F005F5F06097F017D
:1000D0007F006689956A606060606094A2FFA29468
:1000E00008047E040810207E201008082A1C080836
:1000F0001C2A08081E101010100C1E0C1E0C303884
:100100003E3830060E3E0E06000000000000005F84
:1001100000000007000700147F147F14242A7F2AA0
:100120001223130864623649562050000807030062
:10013000001C2241000041221C002A1C7F1C2A08AE
:10014000083E080800807030000808080808000011
:1001500060600020100804023E5149453E00427F85
:10016000400072494949462141494D331814127FD4
:100170001027454545393C4A494931412111090774
:100180003649494936464949291E000014000000F5
:1001900040340000000814224114141414140041C7
:1001A00022140802015909063E415D594E7C121184
:1001B000127C7F494949363E414141227F414141BC
:1001C0003E7F494949417F090909013E4141517337
:1001D0007F0808087F00417F41002040413F017FA8
:1001E000081422417F404040407F021C027F7F0470
:1001F00008107F3E4141413E7F090909063E4151B9
:10020000215E7F09192946264949493203017F01A8
:10021000033F4040403F1F2040201F3F4038403FA9
:10022000631408146303047804036159494D4300BF
:100230007F4141410204081020004141417F0402F6
:10024000010204404040404000030708002054548D
:1002500078407F284444383844444428384444286B
:100260007F385454541800087E090218A4A49C78BE
:100270007F0804047800447D40002040403D007F1A
:100280001028440000417F40007C047804787C08FA
:100290000404783844444438FC18242418182424CE
:1002A00018FC7C08040408485454542404043F44B3
:1002B000243C4040207C1C2040201C3C4030403CE2
:1002C00044281028444C9090907C4464544C440042
:1002D00008364100000077000000413608000201A6
:1002E0000204023C2623263C1EA1A161123A404092
:1002F000207A38545455592155557941225454780F
:1003000042215554784020545579400C1E527212A7
:100310003955555559395454545939555454580030
:1003200000457C410002457D420001457C407D1234
:1003300011127DF0282528F07C5455450020545496
:100340007C547C0A097F4932494949323A44444441
:100350003A324A4848303A4141217A3A424020787C
:10036000009DA0A07D3D4242423D3D4040403D3C7D
:1003700024FF2424487E4943662B2FFC2F2BFF09A2
:1003800029F620C0887E0903205454794100004496
:100390007D413048484A32384040227A007A0A0A81
:1003A000727D0D19317D2629292F282629292926F4
:1003B00030484D4020380808080808080808382F39
:1003C00010C8ACBA2F102834FA00007B00000814C3
:1003D0002A142222142A14085500550055AA55AA99
:1003E00055AAFF55FF55FF000000FF00101010FF39
:1003F00000141414FF001010FF00FF1010F010F094
:10040000141414FC001414F700FF0000FF00FF1484
:1004100014F404FC141417101F10101F101F1414D0
:10042000141F00101010F0000000001F101010101A
:100430001F10101010F010000000FF10101010100E
:1004400010101010FF10000000FF140000FF00FF4C
:1004500000001F10170000FC04F4141417101714E8
:1004600014F404F40000FF00F7141414141414140A
:10047000F700F7141414171410101F101F1414147D
:10048000F4141010F010F000001F101F0000001FE7
:1004900014000000FC140000F010F01010FF10FF1A
:1004A000141414FF141010101F00000000F010FFAF
:1004B000FFFFFFFFF0F0F0F0F0FFFFFF0000000093
:1004C00000FFFF0F0F0F0F0F3844443844FC4A4A17
:1004D0004A347E02020606027E027E0263554941CC
:1004E000633844443C04407E201E2006027E020203
:1004F00099A5E7A5991C2A492A1C4C7201724C3017
:100500004A4D4D303048784830BC625A463D3E49ED
:100510004949007E0101017E2A2A2A2A2A44445F91
:10052000444440514A444040444A51400000FF0185
:1005300003E080FF000008086B6B08361236243693
:10054000060F090F060000181800000010100030F8
:1005500040FF0101001F01011E00191D1712003C80
:100560003C3C3C000000000000000000240027008C
:100570002A0000000000250028002B0004E01002E3
:100580001C07123732292D29252B3900010310E1D0
:1005900010031D07062E2C292D2E2E373F0000029A
:1005A0001013800A298064022A040000007F2B04B3
:1005B0000000007F0F0180961180FFB103012C2DF8
:1005C000B203012C2DB306012C2D012C2DB40107F3
:1005D000C003A20284C101C5C2020A00C3028A2A62
:1005E000C4028AEEC5010E20003601C83A0105009A
:1005F000000000230026002900040404040404046D
:1006000004020202020202030303030303010204C1
:100610000810204080010204081020010204081084
:100620002000000008000201000003040700000091
:100630000000000000001C1511241FBECFEFD8E001
:10064000DEBFCDBF11E0A0E0B1E0ECEBFDE302C006
:1006500005900D92A43BB107D9F722E0A4EBB1E0DD
:1006600001C01D92A53DB207E1F713E0CCE1D3E054
:1006700004C02197FE010E94C51ACB31D107C9F7EA
:100680000E946D150C94DC1E0C94000008950895D2
:10069000AF92BF92CF92DF92EF92FF920F931F9390
:1006A000CF93DF936C017B018B01040F151FEB01CE
:1006B0005E01AE18BF08C017D10759F06991D60185
:1006C000ED91FC910190F081E02DC6010995892BF7
:1006D00079F7C501DF91CF911F910F91FF90EF90B6
:1006E000DF90CF90BF90AF900895833081F028F4D1
:1006F000813099F08230A9F008958730A9F08830D0
:10070000C9F08430B1F4809180008F7D03C0809166
:1007100080008F7780938000089584B58F7784BDA3
:10072000089584B58F7DFBCF8091B0008F77809343
:10073000B00008958091B0008F7DF9CFCF93DF9303
:10074000E3E2F6E08491EFE0F6E0D491EBEFF5E040
:10075000C491CC23A1F081110E947503EC2FF0E02D
:10076000EE0FFF1FE151FA4FA591B491EC91ED23EB
:1007700081E090E009F480E0DF91CF91089580E07E
:1007800090E0FACF1F93CF93DF93282F30E0F90149
:10079000EF5DF94F8491F901E35FF94FD491F901CD
:1007A000E750FA4FC491CC23A9F0162F81110E9473
:1007B0007503EC2FF0E0EE0FFF1FEE58FA4FA591F6
:1007C000B4918FB7F894EC91111108C0D095DE2345
:1007D000DC938FBFDF91CF911F910895DE2BF8CF6F
:1007E000CF93DF9390E0FC01E35FF94F24918750B2
:1007F0009A4FFC0184918823D1F090E0880F991FD3
:10080000FC01E859FA4FA591B491FC01EE58FA4F5A
:10081000C591D491623071F49FB7F8943C91822FC6
:10082000809583238C93E8812E2B28839FBFDF91B3
:10083000CF9108958FB7F894EC912E2B2C938FBF06
:10084000F6CFCF93DF93EC0161E083E00E94F003E9
:10085000209731F460E083E0DF91CF910C94C203E4
:10086000CF3FD10511F461E0F6CFE4E2F6E0E49188
:10087000E33029F140F4E130B1F0E230D9F0C03892
:10088000D1058CF7E7CFE73021F1E83051F1E430C2
:10089000B1F780918000806280938000D0938B00BC
:1008A000C0938A0004C084B5806884BDC7BDDF9151
:1008B000CF91089584B5806284BDC8BDF8CF809182
:1008C0008000806880938000D0938900C093880066
:1008D000EECF8091B00080688093B000C093B300E9
:1008E000E6CF8091B00080628093B000C093B400E6
:1008F000DECF3FB7F8948091FD019091FE01A09169
:10090000FF01B091000226B5A89B05C02F3F19F04A
:100910000196A11DB11D3FBFBA2FA92F982F88277F
:10092000BC01CD01620F711D811D911D42E0660F5A
:10093000771F881F991F4A95D1F708958F929F922C
:10094000AF92BF92CF92DF92EF92FF926B017C0148
:100950000E9479044B015C01C114D104E104F1044B
:10096000B9F00E947904681979098A099B09683EDF
:1009700073408105910580F321E0C21AD108E10896
:10098000F10888EE880E83E0981EA11CB11CE4CF0C
:10099000FF90EF90DF90CF90BF90AF909F908F909F
:1009A00008950895FC016370658B8481958126818B
:1009B0003781613039F0633029F091878087338740
:1009C00022870895318720879387828708952F9201
:1009D0003F924F925F926F927F928F929F92AF92CF
:1009E000BF92CF92DF92EF92FF920F931F93CF931C
:1009F000DF93CDB7DEB769970FB6F894DEBF0FBEB1
:100A0000CDBF998F888F5B011A01D22E1F830E8371
:100A10003701C982DC0158962D913C9159972115D7
:100A2000310509F004C118968D919C9119976817AA
:100A300079070CF0C0C11A968D919C911B974817AD
:100A400059070CF0B8C18C2C912CFB0126E0C29EFA
:100A5000E00DF11D1124F987E8871E161F060CF022
:100A6000AAC1A40193E0440F551F9A95E1F75D8751
:100A70004C87CA01820D931D181619060CF09BC1F4
:100A800057968C91811104C05FEA5D1508F4D394E8
:100A9000A88DB98DED91FC9111970284F385E02D1D
:100AA000CD010995F5013596F98BE88BBB82AA82B9
:100AB000250188E690E08A199B099C0145E0D49EB7
:100AC000200D311D11243B8B2A8BEA89FB89E40D13
:100AD000F51D24913D822C82D12CC12C622F70E017
:100AE0007F876E87E88DF98DA081B18120FF7CC062
:100AF000F981F13009F069C01C96ED91FC912E81CD
:100B00003F81A1014C0D5D1DB201888D998D099524
:100B1000EE85FF85F595E7952E2F4FEFC41AD40A81
:100B20006C817D81680D791D7D836C8378E0C716AB
:100B3000D104A1F68FEF481A580AAA81BB81A80DEB
:100B4000B91DBB83AA83E889F989E415F50509F085
:100B5000BCCF2E813F8126153705A9F0A88DB98D10
:100B6000ED91FC91B981B13009F051C0B5016B5FD5
:100B70007F4F0088F189E02D830128E030E0A1015A
:100B8000888D998D0995A88DB98DED91FC9111975E
:100B90000688F789E02DCD0169960FB6F894DEBF7F
:100BA0000FBECDBFDF91CF911F910F91FF90EF90BE
:100BB000DF90CF90BF90AF909F908F907F906F907D
:100BC0005F904F903F902F9009941E96ED91FC916D
:100BD000EE80FF80840194014C815D816A817B817C
:100BE000888D998D099594CF2E813F8126153705E3
:100BF00009F48ECF3981313029F41C96ED91FC91A6
:100C000093017FCF1E96ED91FC917301E3CF688530
:100C10007985681979090684F785E02D73010C85BB
:100C20001D859401A101888D998D0995ACCFF9019D
:100C300034969491329745915491D91AB7E0DB9E3E
:100C4000400D511D1124F90125913491398B288BC8
:100C5000FA0145905490FA01329664903196C4900E
:100C600032961491319604913981323008F48AC059
:100C7000E12E012E000CFF08402F002E000C550B1A
:100C800059874887A88DB98DED91FC911197028401
:100C9000F385E02DCD010995B9818B2E912CE89C2F
:100CA000C001E99C900DF89C900D1124FC01EA0D07
:100CB000FB1DFF87EE871C82D12C712C9B868A86B8
:100CC0009101200F311D07FD3A953D8B2C8BA5011D
:100CD000410F511D17FD5A955F8B4E8B7C1408F008
:100CE00052CF872D90E048855985480F591F6A8556
:100CF0007B85469F9001479F300D569F300D1124F4
:100D0000D901A20DB31DBD87AC87EE85FF85FB839E
:100D1000EA83B12CA12C2C893D89280F391F3B8BEC
:100D20002A8B8C818A0DA61408F040C0877041F48C
:100D3000C2010196E889F989E40DF51DD4902C01D2
:100D4000D7FE15C0A88DB98DED91FC91B981B13058
:100D5000F1F40484F585E02D2E813F814A895B8979
:100D60006E897F896A0D7B1D888D998D0995DD0CB3
:100D7000EFEFAE1ABE0A2A813B81280D391D3B8355
:100D80002A83CFCF19861886F12CE12C7BCF0684DD
:100D9000F785E02DEE80FF80840194014C855D8510
:100DA0006A817B81888D998D0995E1CF3C81360DD3
:100DB0003C83739493CF69960FB6F894DEBF0FBE51
:100DC000CDBFDF91CF911F910F91FF90EF90DF90FA
:100DD000CF90BF90AF909F908F907F906F905F90DB
:100DE0004F903F902F900895AF92BF92CF92EF9285
:100DF000FF920F931F93CF93DF93EC01262F888DE3
:100E0000998D009709F04FC06A30C9F41D861C8681
:100E10008C8998E0899F900111248E859F85820F8F
:100E2000931F9F878E8781E090E0DF91CF911F9184
:100E30000F91FF90EF90CF90BF90AF9008956D30DD
:100E400091F3CC888E898823C1F08C859D85E6E05E
:100E5000CE9E800D911D112448855985481759074C
:100E600064F44E855F851D861C86F8E0CF9EC00128
:100E70001124840F951F9F878E87EA88FB88088935
:100E800019894E855F856C857D85CE010E94E704BA
:100E90002C898C859D8536E0239F800D911D112422
:100EA0009D878C87C0CF6A3069F41D861C86FC0143
:100EB0003696E4912C898E859F85E29F800D911D49
:100EC0001124AFCF6D3009F4AECFFC0134963491CC
:100ED000631708F4A8CF3196E491E61708F4A3CF7E
:100EE000FC01329645915491E62FE31BFF0B37E04E
:100EF0003E9F50013F9FB00C1124A40EB51EF5017A
:100F0000329634913196E4913323A1F1EE2391F19D
:100F1000CC88F5013596E4914E89442301F10E2EDB
:100F2000000CFF0BE30FF11DCE9EA001CF9E500DD4
:100F300011246C857D85460F571F68857985641758
:100F400075076CF44E855F851D861C860696FC0130
:100F50008491C89E400D511D11245F874E87EA88F9
:100F6000FB88088919894E855F856C857D85CE0152
:100F70000E94E704F5013496E4912C898C859D85C7
:100F8000E29F800D911D11248BCF6F927F928F92E3
:100F90009F92AF92BF92CF92DF92EF92FF920F9308
:100FA0001F93CF93DF93EC016B015A013901480184
:100FB000E881F9810284F385E02D0995E881F981C2
:100FC0000288F389E02D87019301A501B601CE01C6
:100FD0000995A501480D591D41505109E881F98134
:100FE0000288F389E02D9301B601CE010995E881CD
:100FF000F9810088F189E02D9401A501B601CE01A7
:101000000995C60CD71CB60161507109E881F981B8
:101010000088F189E02D9401A501CE010995E881B0
:10102000F9810688F789E02DCE01DF91CF911F91DC
:101030000F91FF90EF90DF90CF90BF90AF909F9077
:101040008F907F906F9009946F927F928F929F9272
:10105000AF92BF92CF92DF92EF92FF920F931F93C6
:10106000CF93DF935C01EB016A01490138018701ED
:10107000DC01ED91FC916217730719F56416750692
:101080002CF0962D872D3A01C92ED82E96012619BF
:1010900037092F5F3F4F048CF58DE02DA301BE0172
:1010A000C5010995DF91CF911F910F91FF90EF90AE
:1010B000DF90CF90BF90AF909F908F907F906F9078
:1010C00008954615570591F42617370724F0892D02
:1010D0004B01C22FD82F9E01281939092F5F3F4F8E
:1010E000068CF78DE02DA601B401DACF0284F385DA
:1010F000E02D0995D501ED91FC910488F589E02D4D
:1011000083019401A601BE01C5010995D501ED91A8
:10111000FC910688F789E02DC501DF91CF911F91E1
:101120000F91FF90EF90DF90CF90BF90AF909F9086
:101130008F907F906F900994EF92FF920F931F937F
:10114000DC011A960D911C911B9718962D913C91DC
:101150001997ED91FC9100A0F1A1E02D7B0150E0E9
:1011600040E070E060E009951F910F91FF90EF90D3
:1011700008954F925F926F927F928F929F92AF925B
:10118000BF92CF92DF92EF92FF920F931F93CF9374
:10119000DF936C012B015A0139014801DC01ED910B
:1011A000FC910284F385E02D0995E201640C751C25
:1011B000D601ED91FC91C615D7055CF40088F18944
:1011C000E02D87019401A501BE01C6010995219674
:1011D000EFCF0688F789E02DC601DF91CF911F91EF
:1011E0000F91FF90EF90DF90CF90BF90AF909F90C6
:1011F0008F907F906F905F904F9009948F929F9205
:10120000AF92BF92CF92DF92EF92FF920F931F9314
:10121000CF93DF93EC015B014A016901E881F98119
:101220000284F385E02D099595012C0D3D1D21507B
:101230003109E881F9810488F589E02D780184017C
:10124000A401B501CE010995E881F9810688F789E5
:10125000E02DCE01DF91CF911F910F91FF90EF9084
:10126000DF90CF90BF90AF909F908F9009948F9216
:101270009F92AF92BF92CF92DF92EF92FF920F9325
:101280001F93CF93DF93EC015B014A016901780161
:10129000E881F9810284F385E02D0995C80CD91CF9
:1012A000860101501109E881F9810488F589E02D52
:1012B0009501A401B501CE010995E881F98106885F
:1012C000F789E02DCE01DF91CF911F910F91FF9013
:1012D000EF90DF90CF90BF90AF909F908F90099448
:1012E0000895EF92FF920F931F93DC01ED91FC9113
:1012F00000A0F1A1E02D09951F910F91FF90EF90B3
:1013000008950F931F93DC01ED91FC91068CF78DEE
:10131000E02D09951F910F9108950F931F93DC0104
:10132000ED91FC91048CF58DE02D09951F910F91A5
:101330000895DC01ED91FC910084F185E02D099484
:101340002F923F924F925F926F927F928F929F92D5
:10135000AF92BF92CF92DF92EF92FF920F931F93C3
:10136000CF93DF9300D000D000D0CDB7DEB73C01E3
:101370006A013E832D83FC82EB825801A41AB50AD0
:10138000B7FE03C0B194A194B1088D809E80861AE7
:10139000970A97FE03C09194819491088A149B0444
:1013A0005CF0902F812F0D811E819D838E839C2D5B
:1013B0008D2D6B01692F782F0C151D055CF09D811B
:1013C0008E817E836D83692F782F902F812F8601E8
:1013D000C92ED82E1601201A310A2B012D813E81EB
:1013E000421A530A57FE03C05194419451087101A7
:1013F00037FE03C03FEFE31AF30AF594E7948D81BB
:101400009E81861797075CF5A1E0B0E0BA83A983B7
:10141000C016D1064CF1D301ED91FC910484F58501
:10142000E02D2B813C81A8016D817E818A149B0473
:101430001CF04D815E81B801C3010995E418F508DF
:10144000F7FE0AC02D813E8189819A81280F391FBC
:101450003E832D83E20CF31C0F5F1F4FD9CF2FEF7C
:101460003FEF3A832983D4CF26960FB6F894DEBF98
:101470000FBECDBFDF91CF911F910F91FF90EF90E5
:10148000DF90CF90BF90AF909F908F907F906F90A4
:101490005F904F903F902F900895DC019B96ED91C7
:1014A000FC919C979081D0968C91892B8083089594
:1014B000DC019996ED91FC919A9790819F968C9181
:1014C0008095892380830895DC019996ED91FC91A4
:1014D0009A9790819F968C91892B80830895EF92A3
:1014E000FF920F931F93DC011A960D911C911B978D
:1014F00018962D913C911997ED91FC9100A0F1A1C6
:10150000E02D7B0150E040E070E060E009951F9124
:101510000F91FF90EF900895FC01838D28E030E05B
:1015200090E8882339F06EBD00000DB407FEFDCFB2
:101530008EB50895A5A1B6A185A5462F4923A9F08A
:101540004C91842B8C93A7A1B0A58C9146A5842B9C
:101550008C93A7A1B0A54C9186A5809584238C93EC
:1015600096952150310931F708954C918095842347
:10157000E9CF08958CBD9DBD08951F93CF93DF9350
:10158000EC01162F8B8D882331F080917802909199
:1015900079020E94BA0ACE010E944D0ACE010E9431
:1015A000580A612FCE010E948C0ACE01DF91CF91A3
:1015B0001F910C94640A1F93CF93DF93EC01162FB5
:1015C0008B8D882331F080917802909179020E946E
:1015D000BA0AEBA5FCA5908188A980958923808310
:1015E000CE010E94580A612FCE010E948C0ACE01C2
:1015F000DF91CF911F910C94640ACF92DF92EF920A
:10160000FF920F931F93CF93DF93EC012196FC0180
:10161000F490FA94FFEFFF1609F432C0FE016491D2
:1016200080EA92E00E94DB0A6E01F2E0CF0ED11C4C
:10163000FE013196E490CE2DCF778601DC2FD1507C
:1016400048F0F801649180EA92E00E94BD0A0F5FC1
:101650001F4FF5CFCC0DDD2DD11DE7FEDACF8E016A
:101660000F5F1F4FFE01649170E06F3F710511F431
:1016700064EF71E090E080E00E949E04E801C9CF31
:10168000DF91CF911F910F91FF90EF90DF90CF905E
:101690000895611103C060E20C94DB0A61E2FCCFA3
:1016A0001F93CF93DF93EC01162F66E30E94DB0AB2
:1016B00013701D8B8A8D1230B1F1133009F44AC0BA
:1016C0001130D1F0823019F068EC843009F460EC0C
:1016D000CE010E94BD0A8A8D813061F580E890E0DC
:1016E0009B878A879987888789A18BA38AA18CA3E6
:1016F000DF91CF911F910895823019F068EA84300C
:1017000009F460EACE010E94BD0A8A8D813049F554
:1017100080E890E0998788879B878A8789A18CA336
:101720008AA18BA3E5CF823019F068E0843081F67E
:1017300060E0CECF843039F480EA90E09B878A87DE
:1017400080E590E0CFCF80EA90E09B878A8780E8B1
:1017500090E0C8CF823019F068E6843099F660E6F0
:10176000D1CF843039F480EA90E09987888780E58A
:1017700090E0D2CF80EA90E09987888780E890E077
:10178000CBCFEF92FF920F931F93CF93DF93EC0198
:10179000E62E142FF22E6AE20E94DB0A60E0CE01F0
:1017A0000E94BD0A6BA16E0DCE010E94BD0A60E0D1
:1017B000CE010E94BD0A6BA16F0DCE010E94BD0A31
:1017C0006BE2CE010E94DB0A60E0CE010E94BD0AFE
:1017D0006CA1610FCE010E94BD0A60E0CE010E94A3
:1017E000BD0A6CA1600FCE010E94BD0A6CE2CE0161
:1017F000DF91CF911F910F91FF90EF900C94DB0A36
:10180000AF92BF92CF92DF92EF92FF920F931F930E
:10181000CF93DF93EC015901680128853985621760
:1018200073070CF053C08A859B85481759070CF045
:101830004DC0FB01EA0DFB1D2E173F071CF459019B
:10184000A61AB70A9A012C0D3D1D821793071CF4A6
:101850006C01C41AD50A0FEF040F0C0D2FEF260FE1
:101860002A0DCE010E94C10B8B8D882331F080910F
:101870007802909179020E94BA0ACE010E944D0A24
:10188000CE010E94580A1C141D049CF485011016F8
:1018900011065CF46F2DCE010E948C0A6E2DCE01D4
:1018A0000E948C0A01501109F2CF81E0C81AD108B8
:1018B000EACFCE01DF91CF911F910F91FF90EF9072
:1018C000DF90CF90BF90AF900C94640ADF91CF91DE
:1018D0001F910F91FF90EF90DF90CF90BF90AF904E
:1018E0000895DF92EF92FF920F931F93CF93DF93B0
:1018F000EC017901D02E8885998568177907DCF588
:101900002A853B8542175307B4F59B012E0D3F1DD9
:10191000821793071CF47C01E61AF70A2FEF260FB3
:101920002E0D042FCE010E94C10B8B8D882331F028
:1019300080917802909179020E94BA0ACE010E94A9
:101940004D0ACE010E94580A81E0E81AF10848F0D9
:10195000612FCE010E948C0A6D2DCE010E948C0A4F
:10196000F3CFCE01DF91CF911F910F91FF90EF90B8
:10197000DF900C94640ADF91CF911F910F91FF903B
:10198000EF90DF900895DF92EF92FF920F931F93F5
:10199000CF93DF93EC017901D02E88859985681764
:1019A0007907DCF58A859B8548175907B4F59A01B4
:1019B0002E0D3F1D821793071CF47C01E41AF50AD3
:1019C0000FEF040F0E0D262FCE010E94C10B8B8D41
:1019D000882331F080917802909179020E94BA0AAE
:1019E000CE010E944D0ACE010E94580A81E0E81AF9
:1019F000F10848F0612FCE010E948C0A6D2DCE01B6
:101A00000E948C0AF3CFCE01DF91CF911F910F91ED
:101A1000FF90EF90DF900C94640ADF91CF911F91BB
:101A20000F91FF90EF90DF900895FF920F931F9317
:101A3000CF93DF93EC0177FD34C0888599856817D3
:101A400079077CF557FD2DC08A859B854817590776
:101A500044F5F32E122F01E0040F21E0260FCE01F2
:101A60000E94C10B8B8D882331F080917802909178
:101A700079020E94BA0ACE010E944D0ACE010E944C
:101A8000580A6F2DCE010E948C0A612FCE010E9450
:101A90008C0ACE01DF91CF911F910F91FF900C9492
:101AA000640ADF91CF911F910F91FF9008950895DF
:101AB00008958091050290910602891B990B089563
:101AC00008952091D501260F3327331F2132310588
:101AD000ECF420914E02FC0190E080E0243069F0AB
:101AE00082E00895A091D5012191AC014B545E4F45
:101AF000A40FB52FB11D2C930196861798F38091F2
:101B0000D501680F6093D50180E0089581E00895C4
:101B100010924E0281E080934D021092280261E003
:101B200082E10E94C20361E083E10E94C203E9EB0B
:101B3000F0E080818E7F808380818D7F808388E448
:101B40008093B80085E48093BC000895CF93DF9321
:101B500091E09093B4018823B9F0C091B800D0917E
:101B6000BA008091BC008A7B8093BC0060E082E177
:101B70000E94C20360E083E10E94C2030E94880DBC
:101B8000D093BA00C093B800DF91CF9108958F929F
:101B90009F92AF92BF92CF92DF92EF92FF920F93FC
:101BA0001F93CF93DF93D0917702D13208F0D7C043
:101BB000182FC09176020E9479046B017C018091FC
:101BC0004E0281116BC082E080934E0210934D0251
:101BD0008FEF80934C0210924B02D0934A02A6E5FD
:101BE000B2E0EAE2F2E080E0D81391C0109229025C
:101BF00080912902CC0FC82BC09329028091280222
:101C0000813009F088C0109228020E9479046B018B
:101C10007C01809129028093BB00809150029091B9
:101C20005102A0915202B0915302892B8A2B8B2B27
:101C3000A1F00E947904009150021091510220916C
:101C40005202309153026C197D098E099F090617C3
:101C500017072807390708F442C08091BC0083FDAC
:101C6000D8CF85EC8093BC000E9479046B017C0185
:101C700080914E02823009F450C080914C028F3F17
:101C800009F46FC080914C02803209F46CC08091DD
:101C90004C02803309F469C084E026C08091500270
:101CA00090915102A0915202B0915302892B8A2B3C
:101CB0008B2B09F484CF0E9479048090500290907D
:101CC0005102A0905202B09053026C197D098E0906
:101CD0009F0986169706A806B90608F070CF80916E
:101CE0004F020E94A60D85E01092550210927702D5
:101CF00010925402DF91CF911F910F91FF90EF90BE
:101D0000DF90CF90BF90AF909F908F9008959D915E
:101D100091938F5F69CF85EEA5CF8091500290910E
:101D20005102A0915202B0915302892B8A2B8B2B26
:101D300009F49ECF0E947904009150021091510243
:101D400020915202309153026C197D098E099F092E
:101D5000061717072807390708F08ACFC0CF81E098
:101D6000C3CF80E0C1CF82E0BFCF83E0BDCFCF92B1
:101D7000DF92EF92FF920F931F93CF93DF93D82FB1
:101D8000C62F613208F098C00E9479046B017C0173
:101D900080914E0281116BC081E080934E0280934E
:101DA0004D029FEF90934C0210924B029C0F909328
:101DB0004A028093290280912902DD0FD82BD0930B
:101DC000290280912802813009F078C010922802FF
:101DD0000E9479046B017C01809129028093BB00F1
:101DE0008091500290915102A0915202B091530201
:101DF000892B8A2B8B2BA1F00E9479040091500231
:101E00001091510220915202309153026C197D09B8
:101E10008E099F09061717072807390708F448C0D5
:101E20008091BC0083FDD8CF85EC8093BC000E94DC
:101E300079046B017C0180914E02813009F440C02D
:101E400080914B028C1710F4C0914B02EAE2F2E051
:101E5000A8E0B2E080E08C1355C08C2FDF91CF91C9
:101E60001F910F91FF90EF90DF90CF900895809198
:101E7000500290915102A0915202B0915302892BCD
:101E80008A2B8B2B09F484CF0E9479040091500295
:101E90001091510220915202309153026C197D0928
:101EA0008E099F09061717072807390708F070CF12
:101EB00080914F020E94A60DC0E0CFCF85EEB5CF36
:101EC0008091500290915102A0915202B091530220
:101ED000892B8A2B8B2B09F4AECF0E9479040091B9
:101EE00050021091510220915202309153026C190C
:101EF0007D098E099F09061717072807390708F07B
:101F00009ACFD6CF91919D938F5FA5CFE091060296
:101F100080910502E81730F4F0E0E85FFD4F808122
:101F200090E008958FEF9FEF0895909106028091C1
:101F300005022FEF3FEF981748F4E92FF0E0E85F34
:101F4000FD4F208130E09F5F90930602C901089504
:101F5000CF92DF92EF92FF920F931F93CF93DF9375
:101F60007C01CB018A0120915402222389F0EB01EC
:101F70006B01C40ED51ECC15DD0569F06991D70142
:101F8000ED91FC910190F081E02DC7010995F3CF0F
:101F9000642F0E94610DC801DF91CF911F910F91B5
:101FA000FF90EF90DF90CF900895CF93DF931F9233
:101FB000CDB7DEB76983209154022223F9F0209136
:101FC0007702203258F021E030E0FC013383228395
:101FD00090E080E00F90DF91CF91089580915502BD
:101FE000E82FF0E0EA5AFD4F998190838F5F80934C
:101FF00055028093770281E090E0ECCF61E0CE0162
:1020000001960E94610DF7CFCF93C62F90919F024A
:1020100021E0209354029093760210925502109280
:102020007702682F8AE792E00E94D50F6C2F8AE72B
:1020300092E00E94D50F81E0CF910C94C70D90E003
:1020400080E00895CF92DF92EF92FF920F931F935B
:10205000CF93DF9303E310E0D0E0C0E0C82ED12C93
:10206000F12CE12C2596CF3FD10519F014F0CFEFDC
:10207000D0E0CE010E942104C701B6010E949E0457
:102080000150110979F7DF91CF911F910F91FF90C6
:10209000EF90DF90CF900895009769F0FC010190D8
:1020A0000020E9F73197AF01481B590BBC0180EACA
:1020B00092E00C94480390E080E008952F923F92C4
:1020C0004F925F926F927F928F929F92AF92BF9248
:1020D000CF92DF92EF92FF920F931F93CF93DF93F4
:1020E000CDB7DEB766970FB6F894DEBF0FBECDBF93
:1020F0002091A8023091A9023C832B834090AA0230
:102100005090AB022090B8023090B9023091B602E4
:102110003987D090B4024D2D50E05B874A8746E066
:10212000D49E900111243D872C872A853B85F3E0BE
:10213000220F331FFA95E1F73E832D83A1014C5FF7
:102140005F4F5F874E8791012B5F3F4F398B288B05
:10215000425051095B8B4A8B2F5F3F4F38872F834B
:1021600089839A83EB80FC8070E060E0B0E0A0E0BF
:102170004FEF5FEF5D8B4C8B0FEF1FEFE981FA8123
:102180002191FA83E983222309F4D0C02114310478
:1021900009F48EC02A3051F4EF81F88524912D9DE9
:1021A000A00DB11D112470E060E0E8CF2D3031F3B7
:1021B000EE85FF85A490E889F9894491022E000CF0
:1021C000330BB12C2A153B05CCF242171306B4F29F
:1021D000EA89FB89459154912A193B09E7E0CE2E03
:1021E000C29EF001C39EF00D11244E0F5F1FFA0135
:1021F0003296C4903196A4903196B4903196249141
:102200004A5F5F4FFA01F491FE8B39853323F9F071
:102210006C2C712C620E711C27FD7A944A855B85AB
:10222000649E4001659E900C749E900C1124860E55
:10223000971E4B815C81481559054CF4EF81F88558
:1022400034913D9DA00DB11D112470E060E04D2D35
:10225000240390011124260F371F5E895403F001D7
:102260001124AF014A0F5B1F2E153F050CF47901B5
:10227000441555050CF42A01CD9C200D311D112467
:1022800021503109021713070CF48901AD9C400D50
:10229000511D1124415051092C893D8924173507BE
:1022A00014F45D8B4C8BBD9C600D711D112466CFA9
:1022B0002A3029F44D815E81A40FB51F74CF2D30D3
:1022C00009F45CCF5985552379F02C853D85260F7F
:1022D000371F4B815C814217530734F42D813E81B7
:1022E000A20FB31F70E060E04C855D85460F571F5D
:1022F0009A0121503109021713070CF489012D812D
:102300003E812A0F3B1F21503109EC89FD89E217DC
:10231000F30714F43D8B2C8B6E157F050CF47B01B9
:10232000A415B5050CF42D01BA0128CF0E151F0513
:10233000F4F10E191F090F5F1F4F2C893D892415D9
:102340003505C4F1241935092F5F3F4F3A8329839E
:1023500020E830E0A901401B510B5695479550935A
:10236000AD024093AC0249815A81241B350B36954E
:1023700027953093AF022093AE0266960FB6F8947D
:10238000DEBF0FBECDBFDF91CF911F910F91FF90A8
:10239000EF90DF90CF90BF90AF909F908F907F9005
:1023A0006F905F904F903F902F900C944C1010E0E6
:1023B00000E0C3CF1A821982CBCFCF92DF92EF9287
:1023C000FF920F931F93CF93DF9303E310E0CFEFC0
:1023D000D0E0C82ED12CF12CE12C2597D7FF02C0DC
:1023E000D0E0C0E0CE010E942104C701B6010E94E6
:1023F0009E040150110989F7DF91CF911F910F9130
:10240000FF90EF90DF90CF900895CF93DF93EC0192
:10241000898D91E090935402809376021092550238
:10242000109277028AE792E00E94D50F80E00E9426
:10243000C70D61E0898D0E94B70E1092060280934D
:102440000502882339F08AE792E00E94950FDF9118
:10245000CF9108958FEFFBCF0E94F01B0C94671B68
:102460000F931F93CF93DF938C01EB0188E2FB0165
:1024700011928A95E9F74BE050E069E671E0CE01F0
:102480000E94F51B1B8681E090E0A0E0B0E08C8705
:102490009D87AE87BF87F801458956896789708D0A
:1024A000488B598B6A8B7B8B8C8B9D8BAE8BBF8BB8
:1024B0001CA21DA21EA21FA2188E198E1A8E1B8E80
:1024C0001C8E1D8E1E8E1F8E18A219A21AA21BA270
:1024D000DF91CF911F910F9108958F929F92AF92AC
:1024E000BF92CF92DF92EF92FF920F931F93CF9301
:1024F000DF93EC018B01FB01349680E2DF011D923A
:102500008A95E9F784E290E0A0E0B0E0FB018083E7
:102510009183A283B3838D899E89AF89B88D84838B
:102520009583A683B78381E090E0A0E0B0E0808748
:102530009187A287B387108A118A128A138A898D9C
:1025400091E090935402809376021092550210927B
:10255000770261E08AE792E00E94D50F80E00E9456
:10256000C70D66E0898D0E94B70E10920602809317
:1025700005028AE792E00E94950F1B828C838AE70E
:1025800092E00E94950F2B813C81822B932B959595
:102590008795959587959C838B838AE792E00E9427
:1025A000950F1D828E838AE792E00E94950F2D8100
:1025B0003E81822B932B95958795959587959E8344
:1025C0008D838AE792E00E94950F1F8288878AE7B1
:1025D00092E00E94950F2F813885822B932B959541
:1025E00087959595879598878F836EE0CE010E9499
:1025F0000512837060E074E0823051F060E078E0B2
:10260000813031F060E070E1882311F061E070E02A
:1026100090E080E00E94CA196B017C016B817C8193
:10262000072E000C880B990B0E94CC19A70196016C
:102630000E9458194B015C0189869A86AB86BC863C
:102640006D817E81072E000C880B990B0E94CC199E
:10265000A70196010E9458196D877E878F87988BF6
:102660006F817885072E000C880B990B0E94CC197E
:10267000A70196010E945819698B7A8B8B8B9C8BD2
:102680002AE038EE4CE151E4C501B4010E94581A29
:10269000F801648B758B868B978B2AE038EE4CE1C2
:1026A00051E46D857E858F8598890E94581AD801DE
:1026B00058966D937D938D939C935B972AE038EEAB
:1026C0004CE151E469897A898B899C890E94581A66
:1026D000F801648F758F868F978F81E0DF91CF919E
:1026E0001F910F91FF90EF90DF90CF90BF90AF9030
:1026F0009F908F90089585ED8093BC00809150024B
:1027000090915102A0915202B09153020796A11DDF
:10271000B11D23E0B695A795979587952A95D1F792
:102720002091BC0024FD03C010924E0208954091F8
:102730005002509151026091520270915302452B08
:10274000462B472B69F30097A105B10541F025E31E
:102750002A95F1F700000197A109B109E1CF809115
:102760004F020C94A60D1F920F920FB60F921124D8
:102770002F933F938F939F93AF93BF938091F901D2
:102780009091FA01A091FB01B091FC013091F80108
:1027900023E0230F2D3758F50196A11DB11D20937D
:1027A000F8018093F9019093FA01A093FB01B09393
:1027B000FC018091FD019091FE01A091FF01B0917B
:1027C00000020196A11DB11D8093FD019093FE01B1
:1027D000A093FF01B0930002BF91AF919F918F91A1
:1027E0003F912F910F900FBE0F901F90189526E8E4
:1027F000230F0296A11DB11DD2CF1F920F920FB6CB
:102800000F9211242F933F934F935F936F937F9376
:102810008F939F93AF93BF93EF93FF938091B900F2
:10282000887F803609F44AC0F0F5883209F4A7C0E1
:1028300018F5803109F49BC0B8F4882309F4F9C075
:10284000883009F494C0FF91EF91BF91AF919F91AF
:102850008F917F916F915F914F913F912F910F9049
:102860000FBE0F901F901895883109F488C08032F0
:1028700051F780934C0214C0803409F49DC040F499
:102880008033B9F38833F9F680934C0285ECB0C0FD
:10289000803509F485C0883509F496C0883499F6E6
:1028A0000E947B13D0CF883909F48CC038F5883763
:1028B00029F050F4883611F0803729F683E08093B0
:1028C0004E021092F70157C0883809F47BC0803956
:1028D00019F0803809F0B7CF8091F701803208F005
:1028E00071C0E091F70181E08E0F8093F701809134
:1028F000BB00F0E0E952FE4F80833DC0803B39F0E1
:10290000E0F4803A09F479C0883A09F09CCF84E079
:1029100080934E021092D6011092D501E0910302ED
:10292000F091040209958091D50181110FC081E0D9
:102930008093D5011092B50109C0803C09F4A6CF5F
:10294000883C09F4A3CF883B09F07DCFE091D60104
:1029500081E08E0F8093D601F0E0EB54FE4F808132
:102960008093BB009091D6018091D50129C08091C0
:1029700029028093BB0085EC8093BC0064CF9091CA
:102980004B0280914A02981758F5E0914B0281E082
:102990008E0F80934B02F0E0E65DFD4F8081E9CF22
:1029A000E0914B0281E08E0F80934B028091BB003F
:1029B000F0E0E65DFD4F808390914B0280914A02EA
:1029C0009817C8F285E8D8CFE0914B0281E08E0FCE
:1029D00080934B028091BB00F0E0E65DFD4F808369
:1029E00080914D0281115CCF81E08093280284EABE
:1029F0008093BC0010924E0226CF85EC8093BC00E1
:102A000010924E028091F701803230F4E091F7018C
:102A1000F0E0E952FE4F10826091F70170E0E09122
:102A20000102F091020287ED91E009951092F70101
:102A30000ACF10924C0234CFE8E7F2E080E58083C1
:102A40001182EAE7F2E01382128288EE93E0A0E0BE
:102A5000B0E084839583A683B78381E291E091837C
:102A60008083E0EAF2E01382128220E830E03583CE
:102A7000248380EA90E09783868331872087938739
:102A80008287158A158614861786168681E0848BC0
:102A90002FEF3FEF338B228B318B208B868B178A66
:102AA000118E108E21E431E0318320839AE0948FDF
:102AB00098E0958F168E838F8FEF80A3878FE6E83F
:102AC000F2E083E391E0918380838FEF9FEFDC015D
:102AD000858B968BA78BB08F0895CF93DF93CDB75F
:102AE000DEB728970FB6F894DEBF0FBECDBF78943F
:102AF00084B5826084BD84B5816084BD85B5826003
:102B000085BD85B5816085BD80916E0081608093B3
:102B10006E0010928100809181008260809381001C
:102B2000809181008160809381008091800081602C
:102B3000809380008091B10084608093B100809187
:102B4000B00081608093B00080917A0084608093AF
:102B50007A0080917A00826080937A0080917A0076
:102B6000816080937A0080917A00806880937A00F7
:102B70001092C10062E082E00E94F00361E083E015
:102B80000E94F00390E080E00E942104109206026F
:102B90001092050210925502109277020E94880D41
:102BA00086E493E0909304028093030287E493E029
:102BB00090930202809301028DE180939F026DE069
:102BC00086E892E00E9405128A3179F560E48BE292
:102BD0000E9404106BE286E892E00E94051286FDD6
:102BE000F9CF61E08EE00E94041062E08BE20E9467
:102BF000041068E08DE20E94041067E081E20E9408
:102C0000041060E383E20E94041060E384E20E9407
:102C1000041060E385E20E94041060E481E10E94F8
:102C2000041065E08AE20E9404101092C202109221
:102C3000C1021092C3021092C40261E08091BD02F1
:102C40000E94F00361E08091BC020E94F003809139
:102C5000BC02082E000C990BFC01E750FA4FE491DE
:102C6000F0E0EE0FFF1FEE58FA4F259134913093AC
:102C7000CA022093C9022091BD02022E000C330B20
:102C8000F901E750FA4FE491F0E0EE0FFF1FEE5824
:102C9000FA4F459154915093CC024093CB02FC01E2
:102CA000E35FF94FE491E093CF02F901E35FF94F5D
:102CB000E491E093D0028091BB02882309F4B0C074
:102CC0001FB7F89480910702811127C0E3E0F6E076
:102CD0008491E7E1F6E09491E82FF0E0EE0FFF1F1A
:102CE000E859FA4FA591B491EC91E92321F461E000
:102CF0008AE00E94C20361E08AE00E94F0038CB582
:102D000080618CBD8CB580648CBD61E08DE00E94DB
:102D1000F00361E08BE00E94F003809107028F5F77
:102D2000809307021FBF80E58093780281E0809343
:102D3000790280EA92E00E94580A8091BE028F3F99
:102D400021F161E00E94F00361E08091BE020E94E7
:102D5000C20364EF71E080E090E00E949E0460E0B6
:102D60008091BE020E94C20364EF71E080E090E0B7
:102D70000E949E0461E08091BE020E94C20364EF43
:102D800071E080E090E00E949E0484EB95E00E9458
:102D9000FD0A80E890E09093AB028093AA029093A2
:102DA000A9028093A80287EA95E00E94FD0A12E03A
:102DB0001093C10283E08093C2028CE795E00E94E9
:102DC000FD0A81E08093BA0260E080EA92E00E940E
:102DD000500B70E060E080EA92E00E946F0A10936E
:102DE000B4021092B6021092AD021092AC02109290
:102DF000AF021092AE0281E791E00E944C1085E094
:102E00000E942210C12CD12C76010E949E03892B96
:102E100009F44FC08FEFC81AD80AE80AF80AF5CFAC
:102E200061E08091C0020E94F00361E08091BF02E6
:102E30000E94F00360E08091C0020E94C20360E043
:102E40008091BF020E94C2038091C002082E000C34
:102E5000990BFC01E750FA4FE491F0E0EE0FFF1FF1
:102E6000EE58FA4F259134913093C8022093C7024F
:102E70002091BF02022E000C330BF901E750FA4FEC
:102E8000E491F0E0EE0FFF1FEE58FA4F4591549198
:102E90005093C6024093C502FC01E35FF94FE491F1
:102EA000E093CE02F901E35FF94FE491E093CD02A4
:102EB00040CFC114D104E104F10421F0C701B601EF
:102EC0000E94EC1870E060E080EA92E00E946F0AD5
:102ED00082E991E00E945E106EEE72E080E090E088
:102EE0000E949E040E949E03892BE1F38EE10E94C2
:102EF000DD1170E060E080EA92E00E946F0A8E01CE
:102F00000F5F1F4F9CE9892E91E0992E20E0222E21
:102F100020E0322EEE24EA94FE2C4FE1C42ED12C78
:102F2000A12C58EFB52E6CE086E892E00E940512C5
:102F3000782E0E949E03892BB9F58FEF90E00E94B6
:102F40002104809100018F5F863058F58093000145
:102F5000F092B302E092B202F092B102E092B002BB
:102F6000E5E0E093B402E0910001F0E0EE0FFF1F16
:102F7000EF5EFE4F808191810E945E100E949E0351
:102F8000892BE1F385E00E94DD1170E060E080EACA
:102F900092E00E946F0A2114310429F20E9400007D
:102FA000C2CF10920001D4CF73FEF5CFF80188E0B4
:102FB00011928A95E9F7E0910001F0E0E55FFE4F9C
:102FC000808190E001962C01092E000C660877089C
:102FD000019709F447C00E949D18A3019201215056
:102FE0003109410951090E94F518DC01CB01019614
:102FF000A11DB11D782E1F928F939F928F921F93C8
:103000000F930E94041CE8E0E093B4020F900F902D
:103010000F900F900F900F90F1E07F1228C0B092A8
:10302000B302A092B202B092B102A092B002C80163
:103030000E945E108EE10E9422106CED75E080E02F
:1030400090E00E949E048EE10E94DD1170E060E03D
:1030500080EA92E00E946F0A6CE086E892E00E94AB
:10306000051299CF81E090E0A0E0B0E0C3CFE091FD
:103070000001F0E0E55FFE4F8081781209C0D09238
:10308000B302C092B202D092B102C092B002CFCFCE
:10309000F092B302E092B202F092B102E092B0027A
:1030A000C6CF8F929F92AF92BF92CF92DF92EF9254
:1030B000FF92CF93DF93EC01688179818A819B81B4
:1030C000611571058105910521F464E279ED8BE5C7
:1030D00097E02DE133EF41E050E00E94F5184901FF
:1030E0005A019B01AC01A7EAB1E40E9414196B01DB
:1030F0007C01ACEEB4EFA50194010E942219C60E2A
:10310000D71EE81EF91EF7FE06C081E0C81AD108D6
:10311000E10880E8F80AC882D982EA82FB82C70106
:10312000B6019F77DF91CF91FF90EF90DF90CF9026
:10313000BF90AF909F908F9008958F929F92AF9283
:10314000BF92CF92DF92EF92FF9260910101709156
:1031500002018091030190910401611571058105BF
:10316000910521F464E279ED8BE597E02DE133EFF1
:1031700041E050E00E94F51849015A019B01AC0161
:10318000A7EAB1E40E9414196B017C01ACEEB4EF24
:10319000A50194010E942219C60ED71EE81EF91E31
:1031A000F7FE06C081E0C81AD108E10880E8F80AF5
:1031B000C0920101D0920201E0920301F092040159
:1031C000C701B6019F77FF90EF90DF90CF90BF903F
:1031D000AF909F908F9008956093010170930201CA
:1031E00080930301909304010895052E97FB1EF42C
:1031F00000940E940C1957FD07D00E94271907FC64
:1032000003D04EF40C940C195095409530952195AF
:103210003F4F4F4F5F4F0895909580957095619502
:103220007F4F8F4F9F4F08950E944919A59F900D82
:10323000B49F900DA49F800D911D11240895B7FF98
:103240000C9414190E941419821B930B0895A1E287
:103250001A2EAA1BBB1BFD010DC0AA1FBB1FEE1F10
:10326000FF1FA217B307E407F50720F0A21BB30B5B
:10327000E40BF50B661F771F881F991F1A9469F7D7
:1032800060957095809590959B01AC01BD01CF0133
:103290000895A29FB001B39FC001A39F700D811D2F
:1032A0001124911DB29F700D811D1124911D08954F
:1032B0000E946C190C941E1A0E94171A58F00E9452
:1032C000101A40F029F45F3F29F00C94071A5111AD
:1032D0000C94521A0C940D1A0E942F1A68F3992319
:1032E000B1F3552391F3951B550BBB27AA27621702
:1032F0007307840738F09F5F5F4F220F331F441F0F
:10330000AA1FA9F335D00E2E3AF0E0E832D0915042
:103310005040E695001CCAF72BD0FE2F29D0660F2F
:10332000771F881FBB1F261737074807AB07B0E872
:1033300009F0BB0B802DBF01FF2793585F4F3AF078
:103340009E3F510578F00C94071A0C94521A5F3F77
:10335000E4F3983ED4F3869577956795B795F795FE
:103360009F5FC9F7880F911D9695879597F90895E6
:10337000E1E0660F771F881FBB1F62177307840782
:10338000BA0720F0621B730B840BBA0BEE1F88F791
:10339000E0950895E89409C097FB3EF490958095D8
:1033A000709561957F4F8F4F9F4F9923A9F0F92F0B
:1033B00096E9BB279395F695879577956795B79589
:1033C000F111F8CFFAF4BB0F11F460FF1BC06F5F6F
:1033D0007F4F8F4F9F4F16C0882311F096E911C081
:1033E000772321F09EE8872F762F05C0662371F0A2
:1033F00096E8862F70E060E02AF09A95660F771FB6
:10340000881FDAF7880F9695879597F9089597F9A9
:103410009F6780E870E060E008959FEF80EC08957A
:1034200000240A94161617061806090608950024A3
:103430000A9412161306140605060895092E03941D
:10344000000C11F4882352F0BB0F40F4BF2B11F491
:1034500060FF04C06F5F7F4F8F4F9F4F089557FDF0
:103460009058440F551F59F05F3F71F04795880FF2
:1034700097FB991F61F09F3F79F087950895121689
:1034800013061406551FF2CF4695F1DF08C0161635
:1034900017061806991FF1CF8695710561050894E6
:1034A0000895E894BB2766277727CB0197F90895FD
:1034B0000E946B1A0C941E1A0E94101A38F00E9477
:1034C000171A20F0952311F00C94071A0C940D1A7A
:1034D00011240C94521A0E942F1A70F3959FC1F375
:1034E000950F50E0551F629FF001729FBB27F00DB2
:1034F000B11D639FAA27F00DB11DAA1F649F662707
:10350000B00DA11D661F829F2227B00DA11D621F55
:10351000739FB00DA11D621F839FA00D611D221F0F
:10352000749F3327A00D611D231F849F600D211DF3
:10353000822F762F6A2F11249F5750409AF0F1F076
:1035400088234AF0EE0FFF1FBB1F661F771F881FDF
:1035500091505040A9F79E3F510580F00C94071AF6
:103560000C94521A5F3FE4F3983ED4F38695779516
:103570006795B795F795E7959F5FC1F7FE2B880F85
:10358000911D9695879597F90895EE0FFF1F059069
:10359000F491E02D09940F931F93CF93DF93823022
:1035A000910510F482E090E0E091D302F091D40212
:1035B00030E020E0B0E0A0E0309799F4211531052B
:1035C00009F44AC0281B390B24303105D8F58A810B
:1035D0009B816115710589F1FB0193838283FE0153
:1035E00011C0408151810281138148175907E0F0D1
:1035F0004817590799F4109761F012960C93129797
:1036000013961C933296CF01DF91CF911F910F91AA
:1036100008950093D3021093D402F4CF21153105FD
:1036200051F04217530738F0A901DB019A01BD019F
:10363000DF01F801C1CFEF01F9CF9093D40280935D
:10364000D302CDCFFE01E20FF31F8193919322505D
:10365000310939832883D7CF2091D1023091D2020A
:10366000232B41F420910701309108013093D202BD
:103670002093D102209105013091060121153105D9
:1036800041F42DB73EB74091090150910A01241B26
:10369000350BE091D102F091D202E217F307A0F4CA
:1036A0002E1B3F0B2817390778F0AC014E5F5F4F98
:1036B0002417350748F04E0F5F1F5093D2024093F6
:1036C000D102819391939FCFF0E0E0E09CCFCF9324
:1036D000DF930097E9F0FC01329713821282A091E8
:1036E000D302B091D402ED0130E020E01097A1F4B4
:1036F00020813181820F931F2091D1023091D2021B
:103700002817390709F061C0F093D202E093D10283
:10371000DF91CF910895EA01CE17DF07E8F54A81DE
:103720005B819E0141155105B1F7E901FB83EA83F5
:1037300049915991C40FD51FEC17FD0761F48081A1
:1037400091810296840F951FE90199838883828174
:1037500093819B838A83F0E0E0E012968D919C91A7
:1037600013970097B9F52D913C911197CD010296D1
:10377000820F931F2091D1023091D202281739076E
:1037800039F6309751F51092D4021092D302B093CB
:10379000D202A093D102BCCFD383C2834081518196
:1037A000840F951FC817D90761F44E5F5F4F88815A
:1037B0009981480F591F518340838A819B8193834C
:1037C00082832115310509F0B0CFF093D402E09344
:1037D000D3029ECFFD01DC01C0CF13821282D7CF6E
:1037E00081E090E0F8940C94DC1EFB01DC01415078
:1037F000504048F001900D920020C9F701C01D9281
:1038000041505040E0F70895AEE0B0E0EAE0FCE15E
:103810000C94B31E0D891E8986E08C831A8309835C
:103820008FEF9FE79E838D83AE01475E5F4F6F8969
:10383000788DCE0101960E94271C2F813885020FBA
:10384000131FF80110822E96E4E00C94CF1EABE01B
:10385000B0E0EDE2FCE10C94A51E7C013B018A0185
:10386000FC0117821682838181FFC8C1CE010196B7
:103870005C01F7019381F30193FD859193FF8191A1
:103880003F01882309F453C1853239F493FD8591B2
:1038900093FF81913F01853229F4B70190E00E94A6
:1038A000171EE7CF912C212C312CFFE1F31538F0B6
:1038B0008B3211F190F4803209F1833229F137FC17
:1038C0003CC020ED280F2A3050F536FE20C08AE09B
:1038D000989E200D1124922E06C08D3291F08033D7
:1038E00071F7689430F8F30193FD859193FF81910E
:1038F0003F018111DACF21C0689431F8689432F821
:10390000F2CF689433F8EFCF689434F8ECCFEAE064
:103910002E9E200D1124222E689435F8E4CF8E328D
:1039200029F436FC04C1689436F8DDCF8C3619F4DE
:10393000689437F8D8CF8836B1F2982F9F7D955488
:103940009330E0F08336A1F18337C1F1833509F07C
:1039500063C02801F2E04F0E511CF801C080D180F5
:10396000692D70E036FC02C06FEF7FEFC6010E9448
:10397000011E4C01689437F882010AC00C5F1F4F8A
:10398000FFE3F98388248394912C6501E89437F848
:1039900033FE2DC0522C8114910471F5552009F489
:1039A00068CFB70180E290E00E94171E5A94F6CFCC
:1039B000F801808189830E5F1F4FE4CF2801F2E078
:1039C0004F0E511CF801C080D180692D70E036FC8B
:1039D00002C06FEF7FEFC6010E940C1E4C018201F6
:1039E000D5CFB70180E290E00E94171E2A942814D8
:1039F000190409F0B0F7CECFF60137FC859137FEF8
:103A000081916F01B70190E00E94171E51105A94E6
:103A1000F1E08F1A9108BFCF843619F0893609F08A
:103A200077C0F80137FE6BC060817181828193811C
:103A30000C5F1F4FF32DFF763F2E97FF09C0909527
:103A40008095709561957F4F8F4F9F4F689437F8A1
:103A50002AE030E0A5010E94471EC82ECA188C2C0F
:103A6000432C36FE0CC0E89440F8C91440F434FEF0
:103A700005C032FC03C0F32DFE7E4F2E892C44FE80
:103A800095C0FE01EC0DF11D8081803309F087C0E7
:103A9000242D297E422E842D8870582E43FC95C0FB
:103AA00040FE8FC09C2C821418F42C0C922C981879
:103AB00044FE91C0B70180E390E00E94171E42FED1
:103AC00009C088E790E041FE02C088E590E0B701B8
:103AD0000E94171EC91408F48AC0CA94D12C9FEF03
:103AE000C91AD90ACA0CDB1CF60182916F01B70111
:103AF00090E00E94171EAC14BD04B1F74FCF608157
:103B00007181072E000C880B990B0E5F1F4F92CF0F
:103B1000D32CE894D4F82AE030E0853739F1232D0E
:103B2000297FD22E8F3601F148F48835A9F0F701AC
:103B3000868197812B96E2E10C94C11E803749F073
:103B40008837A9F7D4FE02C06894D2F820E130E0AB
:103B50000DC06894D4F8F6CF34FE03C0822F86607F
:103B6000D82E20E132E002C028E030E0F801D7FE94
:103B70000FC060817181828193810C5F1F4FA5010D
:103B80000E94471EC82ECA183D2CE89437F867CF0C
:103B90006081718190E080E00E5F1F4FF0CF42FCAA
:103BA00002C0839478CF8394839475CF842D8678D4
:103BB00009F471CFF6CFB70180E290E00E94171EA2
:103BC00083948214C0F3512C73CF522C5818821452
:103BD00008F46ECFF8CF842D867809F47BCF8BE282
:103BE00041FE80E247FC8DE2B70190E071CFB70162
:103BF00080E390E00E94171E9A946CCF8FEF9FEFA6
:103C000099CFFC010590615070400110D8F7809564
:103C100090958E0F9F1F0895FC0161507040019098
:103C20000110D8F7809590958E0F9F1F08950F93E0
:103C30001F93CF93DF93182F092FEB018B8181FD09
:103C400009C01FEF0FEF812F902FDF91CF911F91B0
:103C50000F91089582FF14C02E813F818C819D8138
:103C6000281739073CF4E881F981CF01019699833F
:103C7000888310838E819F8101969F838E83E3CFFB
:103C8000E885F985812F0995892BA1F3DACFFA010F
:103C9000AA27283051F1203181F1E8946F936E7F8B
:103CA0006E5F7F4F8F4F9F4FAF4FB1E03ED0B4E07C
:103CB0003CD0670F781F891F9A1FA11D680F791FBD
:103CC0008A1F911DA11D6A0F711D811D911DA11DCE
:103CD00020D009F468943F912AE0269F11243019DE
:103CE000305D3193DEF6CF010895462F4770405D79
:103CF0004193B3E00FD0C9F7F6CF462F4F70405D28
:103D00004A3318F0495D31FD4052419302D0A9F782
:103D1000EACFB4E0A6959795879577956795BA957C
:103D2000C9F700976105710508959B01AC010A2E42
:103D300006945795479537952795BA95C9F7620F19
:103D4000731F841F951FA01D08952F923F924F92BD
:103D50005F926F927F928F929F92AF92BF92CF921B
:103D6000DF92EF92FF920F931F93CF93DF93CDB724
:103D7000DEB7CA1BDB0B0FB6F894DEBF0FBECDBF9C
:103D800009942A88398848885F846E847D848C846D
:103D90009B84AA84B984C884DF80EE80FD800C8176
:103DA0001B81AA81B981CE0FD11D0FB6F894DEBF59
:0C3DB0000FBECDBFED010895F894FFCFC9
:103DBC0005010000000000D50280000406080A0C72
:103DCC00149F01A201A501A801AC01B001000000E3
:103DDC0000D50FA80F1F107009590D950F860F00F5
:103DEC00000000580D2E12600D6D123012000000F4
:103DFC0000F40648031F10570D150D700999097131
:103E0C00098D098109A0097009500B490BC30C716C
:103E1C000C000C6F0A2408C5074D4D413834353160
:103E2C000050757368200D0A627574746F6E200DE6
:103E3C000A746F20636861726765200D0A64696398
:103E4C006500476F6F64204C75636B0025690044F7
:103E5C0034004436004438004431300044313200E0
:043E6C0044323000AC
:00000001FF
